{
  "contractName": "ERC20Basic",
  "abi": [
    {
      "inputs": [
        {
          "internalType": "uint256",
          "name": "total",
          "type": "uint256"
        }
      ],
      "stateMutability": "nonpayable",
      "type": "constructor"
    },
    {
      "anonymous": false,
      "inputs": [
        {
          "indexed": true,
          "internalType": "address",
          "name": "tokenOwner",
          "type": "address"
        },
        {
          "indexed": true,
          "internalType": "address",
          "name": "spender",
          "type": "address"
        },
        {
          "indexed": false,
          "internalType": "uint256",
          "name": "tokens",
          "type": "uint256"
        }
      ],
      "name": "Approval",
      "type": "event"
    },
    {
      "anonymous": false,
      "inputs": [
        {
          "indexed": true,
          "internalType": "address",
          "name": "from",
          "type": "address"
        },
        {
          "indexed": true,
          "internalType": "address",
          "name": "to",
          "type": "address"
        },
        {
          "indexed": false,
          "internalType": "uint256",
          "name": "tokens",
          "type": "uint256"
        }
      ],
      "name": "Transfer",
      "type": "event"
    },
    {
      "inputs": [],
      "name": "decimals",
      "outputs": [
        {
          "internalType": "uint8",
          "name": "",
          "type": "uint8"
        }
      ],
      "stateMutability": "view",
      "type": "function"
    },
    {
      "inputs": [],
      "name": "name",
      "outputs": [
        {
          "internalType": "string",
          "name": "",
          "type": "string"
        }
      ],
      "stateMutability": "view",
      "type": "function"
    },
    {
      "inputs": [],
      "name": "symbol",
      "outputs": [
        {
          "internalType": "string",
          "name": "",
          "type": "string"
        }
      ],
      "stateMutability": "view",
      "type": "function"
    },
    {
      "inputs": [],
      "name": "totalSupply",
      "outputs": [
        {
          "internalType": "uint256",
          "name": "",
          "type": "uint256"
        }
      ],
      "stateMutability": "view",
      "type": "function"
    },
    {
      "inputs": [
        {
          "internalType": "uint256",
          "name": "newTokens",
          "type": "uint256"
        }
      ],
      "name": "increaseTotalSuply",
      "outputs": [],
      "stateMutability": "nonpayable",
      "type": "function"
    },
    {
      "inputs": [
        {
          "internalType": "address",
          "name": "tokenOwner",
          "type": "address"
        }
      ],
      "name": "balanceOf",
      "outputs": [
        {
          "internalType": "uint256",
          "name": "",
          "type": "uint256"
        }
      ],
      "stateMutability": "view",
      "type": "function"
    },
    {
      "inputs": [
        {
          "internalType": "address",
          "name": "receiver",
          "type": "address"
        },
        {
          "internalType": "uint256",
          "name": "numTokens",
          "type": "uint256"
        }
      ],
      "name": "transfer",
      "outputs": [
        {
          "internalType": "bool",
          "name": "",
          "type": "bool"
        }
      ],
      "stateMutability": "nonpayable",
      "type": "function"
    },
    {
      "inputs": [
        {
          "internalType": "address",
          "name": "sender",
          "type": "address"
        },
        {
          "internalType": "address",
          "name": "receiver",
          "type": "address"
        },
        {
          "internalType": "uint256",
          "name": "numTokens",
          "type": "uint256"
        }
      ],
      "name": "transferencia_loteria",
      "outputs": [
        {
          "internalType": "bool",
          "name": "",
          "type": "bool"
        }
      ],
      "stateMutability": "nonpayable",
      "type": "function"
    },
    {
      "inputs": [
        {
          "internalType": "address",
          "name": "delegate",
          "type": "address"
        },
        {
          "internalType": "uint256",
          "name": "numTokens",
          "type": "uint256"
        }
      ],
      "name": "approve",
      "outputs": [
        {
          "internalType": "bool",
          "name": "",
          "type": "bool"
        }
      ],
      "stateMutability": "nonpayable",
      "type": "function"
    },
    {
      "inputs": [
        {
          "internalType": "address",
          "name": "owner",
          "type": "address"
        },
        {
          "internalType": "address",
          "name": "delegate",
          "type": "address"
        }
      ],
      "name": "allowance",
      "outputs": [
        {
          "internalType": "uint256",
          "name": "",
          "type": "uint256"
        }
      ],
      "stateMutability": "view",
      "type": "function"
    },
    {
      "inputs": [
        {
          "internalType": "address",
          "name": "owner",
          "type": "address"
        },
        {
          "internalType": "address",
          "name": "buyer",
          "type": "address"
        },
        {
          "internalType": "uint256",
          "name": "numTokens",
          "type": "uint256"
        }
      ],
      "name": "transferFrom",
      "outputs": [
        {
          "internalType": "bool",
          "name": "",
          "type": "bool"
        }
      ],
      "stateMutability": "nonpayable",
      "type": "function"
    }
  ],
  "bytecode": "0x608060405234801561001057600080fd5b5060405161109d38038061109d83398181016040528101906100329190610099565b806002819055506002546000803373ffffffffffffffffffffffffffffffffffffffff1673ffffffffffffffffffffffffffffffffffffffff16815260200190815260200160002081905550506100e3565b600081519050610093816100cc565b92915050565b6000602082840312156100ab57600080fd5b60006100b984828501610084565b91505092915050565b6000819050919050565b6100d5816100c2565b81146100e057600080fd5b50565b610fab806100f26000396000f3fe608060405234801561001057600080fd5b50600436106100a95760003560e01c80634ee22adf116100715780634ee22adf1461016857806370a082311461018457806395d89b41146101b4578063a9059cbb146101d2578063dd62ed3e14610202578063f7a1d19414610232576100a9565b806306fdde03146100ae578063095ea7b3146100cc57806318160ddd146100fc57806323b872dd1461011a578063313ce5671461014a575b600080fd5b6100b6610262565b6040516100c39190610e3a565b60405180910390f35b6100e660048036038101906100e19190610d54565b61029b565b6040516100f39190610e1f565b60405180910390f35b61010461038d565b6040516101119190610e5c565b60405180910390f35b610134600480360381019061012f9190610d05565b610397565b6040516101419190610e1f565b60405180910390f35b610152610712565b60405161015f9190610e77565b60405180910390f35b610182600480360381019061017d9190610d90565b610717565b005b61019e60048036038101906101999190610ca0565b610776565b6040516101ab9190610e5c565b60405180910390f35b6101bc6107be565b6040516101c99190610e3a565b60405180910390f35b6101ec60048036038101906101e79190610d54565b6107f7565b6040516101f99190610e1f565b60405180910390f35b61021c60048036038101906102179190610cc9565b6109d9565b6040516102299190610e5c565b60405180910390f35b61024c60048036038101906102479190610d05565b610a60565b6040516102599190610e1f565b60405180910390f35b6040518060400160405280600a81526020017f455243323042617369630000000000000000000000000000000000000000000081525081565b600081600160003373ffffffffffffffffffffffffffffffffffffffff1673ffffffffffffffffffffffffffffffffffffffff16815260200190815260200160002060008573ffffffffffffffffffffffffffffffffffffffff1673ffffffffffffffffffffffffffffffffffffffff168152602001908152602001600020819055508273ffffffffffffffffffffffffffffffffffffffff163373ffffffffffffffffffffffffffffffffffffffff167f8c5be1e5ebec7d5bd14f71427d1e84f3dd0314c0f7b2291e5b200ac8c7c3b9258460405161037b9190610e5c565b60405180910390a36001905092915050565b6000600254905090565b60008060008573ffffffffffffffffffffffffffffffffffffffff1673ffffffffffffffffffffffffffffffffffffffff168152602001908152602001600020548211156103e457600080fd5b600160008573ffffffffffffffffffffffffffffffffffffffff1673ffffffffffffffffffffffffffffffffffffffff16815260200190815260200160002060003373ffffffffffffffffffffffffffffffffffffffff1673ffffffffffffffffffffffffffffffffffffffff1681526020019081526020016000205482111561046d57600080fd5b6104be826000808773ffffffffffffffffffffffffffffffffffffffff1673ffffffffffffffffffffffffffffffffffffffff16815260200190815260200160002054610c4390919063ffffffff16565b6000808673ffffffffffffffffffffffffffffffffffffffff1673ffffffffffffffffffffffffffffffffffffffff1681526020019081526020016000208190555061058f82600160008773ffffffffffffffffffffffffffffffffffffffff1673ffffffffffffffffffffffffffffffffffffffff16815260200190815260200160002060003373ffffffffffffffffffffffffffffffffffffffff1673ffffffffffffffffffffffffffffffffffffffff16815260200190815260200160002054610c4390919063ffffffff16565b600160008673ffffffffffffffffffffffffffffffffffffffff1673ffffffffffffffffffffffffffffffffffffffff16815260200190815260200160002060003373ffffffffffffffffffffffffffffffffffffffff1673ffffffffffffffffffffffffffffffffffffffff16815260200190815260200160002081905550610660826000808673ffffffffffffffffffffffffffffffffffffffff1673ffffffffffffffffffffffffffffffffffffffff16815260200190815260200160002054610c5a90919063ffffffff16565b6000808573ffffffffffffffffffffffffffffffffffffffff1673ffffffffffffffffffffffffffffffffffffffff168152602001908152602001600020819055508273ffffffffffffffffffffffffffffffffffffffff168473ffffffffffffffffffffffffffffffffffffffff167fddf252ad1be2c89b69c2b068fc378daa952ba7f163c4a11628f55a4df523b3ef846040516106ff9190610e5c565b60405180910390a3600190509392505050565b600281565b80600260008282540192505081905550806000803373ffffffffffffffffffffffffffffffffffffffff1673ffffffffffffffffffffffffffffffffffffffff1681526020019081526020016000206000828254019250508190555050565b60008060008373ffffffffffffffffffffffffffffffffffffffff1673ffffffffffffffffffffffffffffffffffffffff168152602001908152602001600020549050919050565b6040518060400160405280600981526020017f4a424a2d544f4b454e000000000000000000000000000000000000000000000081525081565b60008060003373ffffffffffffffffffffffffffffffffffffffff1673ffffffffffffffffffffffffffffffffffffffff1681526020019081526020016000205482111561084457600080fd5b610895826000803373ffffffffffffffffffffffffffffffffffffffff1673ffffffffffffffffffffffffffffffffffffffff16815260200190815260200160002054610c4390919063ffffffff16565b6000803373ffffffffffffffffffffffffffffffffffffffff1673ffffffffffffffffffffffffffffffffffffffff16815260200190815260200160002081905550610928826000808673ffffffffffffffffffffffffffffffffffffffff1673ffffffffffffffffffffffffffffffffffffffff16815260200190815260200160002054610c5a90919063ffffffff16565b6000808573ffffffffffffffffffffffffffffffffffffffff1673ffffffffffffffffffffffffffffffffffffffff168152602001908152602001600020819055508273ffffffffffffffffffffffffffffffffffffffff163373ffffffffffffffffffffffffffffffffffffffff167fddf252ad1be2c89b69c2b068fc378daa952ba7f163c4a11628f55a4df523b3ef846040516109c79190610e5c565b60405180910390a36001905092915050565b6000600160008473ffffffffffffffffffffffffffffffffffffffff1673ffffffffffffffffffffffffffffffffffffffff16815260200190815260200160002060008373ffffffffffffffffffffffffffffffffffffffff1673ffffffffffffffffffffffffffffffffffffffff16815260200190815260200160002054905092915050565b60008060008573ffffffffffffffffffffffffffffffffffffffff1673ffffffffffffffffffffffffffffffffffffffff16815260200190815260200160002054821115610aad57600080fd5b610afe826000808773ffffffffffffffffffffffffffffffffffffffff1673ffffffffffffffffffffffffffffffffffffffff16815260200190815260200160002054610c4390919063ffffffff16565b6000808673ffffffffffffffffffffffffffffffffffffffff1673ffffffffffffffffffffffffffffffffffffffff16815260200190815260200160002081905550610b91826000808673ffffffffffffffffffffffffffffffffffffffff1673ffffffffffffffffffffffffffffffffffffffff16815260200190815260200160002054610c5a90919063ffffffff16565b6000808573ffffffffffffffffffffffffffffffffffffffff1673ffffffffffffffffffffffffffffffffffffffff168152602001908152602001600020819055508273ffffffffffffffffffffffffffffffffffffffff168473ffffffffffffffffffffffffffffffffffffffff167fddf252ad1be2c89b69c2b068fc378daa952ba7f163c4a11628f55a4df523b3ef84604051610c309190610e5c565b60405180910390a3600190509392505050565b600082821115610c4f57fe5b818303905092915050565b600080828401905083811015610c6c57fe5b8091505092915050565b600081359050610c8581610f47565b92915050565b600081359050610c9a81610f5e565b92915050565b600060208284031215610cb257600080fd5b6000610cc084828501610c76565b91505092915050565b60008060408385031215610cdc57600080fd5b6000610cea85828601610c76565b9250506020610cfb85828601610c76565b9150509250929050565b600080600060608486031215610d1a57600080fd5b6000610d2886828701610c76565b9350506020610d3986828701610c76565b9250506040610d4a86828701610c8b565b9150509250925092565b60008060408385031215610d6757600080fd5b6000610d7585828601610c76565b9250506020610d8685828601610c8b565b9150509250929050565b600060208284031215610da257600080fd5b6000610db084828501610c8b565b91505092915050565b610dc281610ec0565b82525050565b6000610dd382610e92565b610ddd8185610e9d565b9350610ded818560208601610f03565b610df681610f36565b840191505092915050565b610e0a81610eec565b82525050565b610e1981610ef6565b82525050565b6000602082019050610e346000830184610db9565b92915050565b60006020820190508181036000830152610e548184610dc8565b905092915050565b6000602082019050610e716000830184610e01565b92915050565b6000602082019050610e8c6000830184610e10565b92915050565b600081519050919050565b600082825260208201905092915050565b6000610eb982610ecc565b9050919050565b60008115159050919050565b600073ffffffffffffffffffffffffffffffffffffffff82169050919050565b6000819050919050565b600060ff82169050919050565b60005b83811015610f21578082015181840152602081019050610f06565b83811115610f30576000848401525b50505050565b6000601f19601f8301169050919050565b610f5081610eae565b8114610f5b57600080fd5b50565b610f6781610eec565b8114610f7257600080fd5b5056fea264697066735822122040f48ef3c10955d4daebb1c17e5587aacd40c94e26e78a01d23a3877d2240d9464736f6c63430006080033",
  "immutableReferences": {},
  "source": "// SPDX-License-Identifier: MIT\r\npragma solidity >=0.4.4 <0.8.0;\r\npragma experimental ABIEncoderV2;\r\n\r\nlibrary SafeMath{\r\n    // Restas\r\n    function sub(uint256 a, uint256 b) internal pure returns (uint256) {\r\n      assert(b <= a);\r\n      return a - b;\r\n    }\r\n    \r\n    // Sumas\r\n    function add(uint256 a, uint256 b) internal pure returns (uint256) {\r\n      uint256 c = a + b;\r\n      assert(c >= a);\r\n      return c;\r\n    }\r\n    \r\n    // Multiplicacion\r\n    function mul(uint256 a, uint256 b) internal pure returns (uint256) {\r\n        if (a == 0) {\r\n            return 0;\r\n        }\r\n\r\n        uint256 c = a * b;\r\n        require(c / a == b, \"SafeMath: multiplication overflow\");\r\n\r\n        return c;\r\n    }\r\n}\r\n\r\n\r\n\r\ninterface IERC20{\r\n    function totalSupply() external view returns (uint256);\r\n    function balanceOf (address account) external view returns (uint256);\r\n    function allowance(address owner,address spender) external view returns (uint256);\r\n    function transfer(address recipient, uint256 amount) external returns (bool);\r\n    function transferencia_loteria(address sender, address recipient, uint256 amount) external returns (bool);\r\n    function approve (address spender, uint256 amount) external returns (bool);\r\n    function transferFrom(address sender, address recipient, uint amount) external returns (bool);\r\n    \r\n    event Transfer(address indexed from, address indexed to, uint256 value);\r\n    event Approval (address indexed owner, address indexed spender, uint256 value);\r\n}\r\n\r\ncontract ERC20Basic is IERC20 {\r\n    string public constant name = \"ERC20Basic\";\r\n    string public constant symbol = \"JBJ-TOKEN\";\r\n    uint8 public constant decimals = 2;\r\n    \r\n    event Transfer(address indexed from, address indexed to, uint256 tokens);\r\n    event Approval(address indexed tokenOwner, address indexed spender, uint tokens);\r\n    \r\n    mapping (address => uint) balances;\r\n    mapping(address => mapping (address => uint)) allowed;\r\n    uint256 totalSupply_;\r\n    \r\n    using SafeMath for uint256;\r\n    \r\n    constructor (uint256 total) public{\r\n        totalSupply_ = total;\r\n        balances[msg.sender] = totalSupply_;\r\n    }\r\n    \r\n    function totalSupply() public override view returns (uint256){\r\n        return totalSupply_;\r\n    }\r\n    \r\n    function increaseTotalSuply(uint newTokens) public{\r\n        totalSupply_ += newTokens;\r\n        balances[msg.sender] += newTokens;\r\n    }\r\n    \r\n    function balanceOf (address tokenOwner) public override view returns (uint256){\r\n        return balances[tokenOwner];\r\n    }\r\n    \r\n    function transfer(address receiver, uint256 numTokens) public override returns (bool){\r\n        require(numTokens <= balances[msg.sender]);\r\n        balances[msg.sender] = balances[msg.sender].sub(numTokens);\r\n        balances[receiver] = balances[receiver].add(numTokens);\r\n        emit Transfer(msg.sender,receiver,numTokens);\r\n        return true;\r\n    } \r\n    \r\n    function transferencia_loteria(address sender, address receiver, uint256 numTokens) public override returns (bool){\r\n        require(numTokens <= balances[sender]);\r\n        balances[sender] = balances[sender].sub(numTokens);\r\n        balances[receiver] = balances[receiver].add(numTokens);\r\n        emit Transfer(sender,receiver,numTokens);\r\n        return true;\r\n    } \r\n    \r\n    function approve (address delegate, uint256 numTokens) public override returns (bool) {\r\n        allowed[msg.sender][delegate] = numTokens;\r\n        emit Approval(msg.sender, delegate, numTokens);\r\n        return true;\r\n    }\r\n    \r\n    function allowance (address owner, address delegate) public override view returns (uint){\r\n        return allowed[owner][delegate];\r\n    }\r\n    \r\n    function transferFrom(address owner, address buyer, uint256 numTokens) public override returns (bool){\r\n        require (numTokens <= balances[owner]);\r\n        require (numTokens <= allowed[owner][msg.sender]);\r\n        \r\n        balances[owner] = balances[owner].sub(numTokens);\r\n        allowed[owner][msg.sender] = allowed[owner][msg.sender].sub(numTokens);\r\n        balances[buyer] = balances[buyer].add(numTokens);\r\n        emit Transfer(owner,buyer,numTokens);\r\n        return true;\r\n    }\r\n}\r\n\r\n\r\n\r\ncontract Loteria {\r\n\r\n    ERC20Basic private token;\r\n\r\n\r\n    address public owner;\r\n    address public contrato;\r\n\r\n    uint public tokens_creados = 10000;\r\n\r\n    constructor() public{\r\n        token = new ERC20Basic(tokens_creados);\r\n        owner = msg.sender;\r\n        contrato = address(this);\r\n    }\r\n\r\n\r\n   modifier Unicomente (address _direccion){\r\n        require(_direccion == owner);\r\n        _;\r\n    }\r\n\r\n    event compra_boletos(uint, address);\r\n\r\n\r\n    // --------- comprar token --------------\r\n\r\n    function precioToken(uint _numToken) internal pure returns(uint){\r\n        return _numToken * (1 ether);\r\n    }\r\n\r\n\r\n    function generarToken (uint _numToken) public Unicomente(msg.sender){\r\n        token.increaseTotalSuply(_numToken);\r\n    }\r\n\r\n    function comprarTokens (uint _numToken) public payable {\r\n        uint coste = precioToken(_numToken);\r\n        require (msg.value >= coste, \"mas tokennnssssss\");\r\n        uint returnValue = msg.value - coste;\r\n        msg.sender.transfer(returnValue);\r\n\r\n        uint balance = tokenDisponilbe();\r\n        require (_numToken <= balance, \"compra menos tokens\");\r\n\r\n        token.transfer(msg.sender, _numToken);\r\n\r\n        emit compra_boletos(_numToken, msg.sender);\r\n\r\n    }\r\n\r\n    function tokenDisponilbe() public view returns(uint){\r\n        return token.balanceOf(contrato);\r\n    }\r\n\r\n\r\n    //balance de tokens acumulados\r\n    function bote() public view returns(uint){\r\n        return token.balanceOf(owner);\r\n    }\r\n\r\n\r\n    function misToken() public view returns(uint){\r\n        return token.balanceOf(msg.sender);\r\n    }\r\n\r\n    //--------------- loteriaa------------------\r\n\r\n\r\n    uint public prcioBoleto = 5;\r\n\r\n    mapping(address => uint[]) idPersona_boleto;\r\n\r\n    mapping(uint => address) adn_boleto;\r\n\r\n    uint reamdomNum = 0;\r\n\r\n    uint[] boletos_comprados;\r\n    \r\n    event boleto_comprado(uint, address);\r\n    event boleto_ganador(uint);\r\n\r\n\r\n\r\n    function comprarBoleto(uint _numBoleto) public {\r\n        //precio total boletos\r\n        uint precio_total = _numBoleto * prcioBoleto ;\r\n\r\n        //filtrar tokens de pago\r\n        require(precio_total <= misToken(), \"necesitas mas tokens\");\r\n\r\n        //trasferencia al owner -> bote\r\n\r\n        token.transferencia_loteria(msg.sender, owner, precio_total );\r\n        \r\n        //numero ramdomm\r\n        for(uint i = 0 ; i < _numBoleto; i++){\r\n            uint random = uint(keccak256(abi.encodePacked(now, msg.sender, reamdomNum))) % 10000;\r\n            reamdomNum++;\r\n            //almacenar los boletos\r\n            idPersona_boleto[msg.sender].push(random);\r\n            //alamcenaar boletos ya comprados\r\n            boletos_comprados.push(random);\r\n            //asignaar adn al aganador\r\n            adn_boleto[random]= msg.sender;\r\n            emit boleto_comprado(random, msg.sender);\r\n        }\r\n    }\r\n\r\n    //ver tus boletos\r\n    function verBoletos() public view returns(uint[] memory) {\r\n        return idPersona_boleto[msg.sender];\r\n    }\r\n\r\n    function generarGnador() public  Unicomente(msg.sender){\r\n        require(boletos_comprados.length > 0 ,\"no compro nadiee\");\r\n\r\n        uint longituda = boletos_comprados.length;\r\n        //aleteoria eligo entre 0 - lomgitud;\r\n        uint posicion_array = uint (uint(keccak256(abi.encodePacked(now))) %longituda );\r\n        // seleccion numero alaetorio\r\n\r\n        uint eleccion = boletos_comprados[posicion_array];\r\n\r\n        emit boleto_ganador(eleccion);\r\n        //enviar tokens al ganador\r\n        address direccion_ganador = adn_boleto[eleccion];\r\n        \r\n        token.transferencia_loteria(msg.sender, direccion_ganador, bote()*80 % 100);\r\n\r\n    }\r\n\r\n\r\n    //cambiar tokens por ethe\r\n\r\n    function devolverTokens(uint _numToken) public payable {\r\n        require (_numToken > 0, \"necesitas mas tokenss\");\r\n        require(_numToken <= misToken(), \"nos tienesn los tokens q quieres devolver\");\r\n        token.transferencia_loteria(msg.sender, address(this), _numToken);\r\n        msg.sender.transfer(precioToken(_numToken));\r\n    }\r\n\r\n}\r\n\r\n",
  "sourcePath": "C:\\Users\\Hp Omen\\Desktop\\repositorio\\Loteria\\src\\contracts\\Loteria.sol",
  "compiler": {
    "name": "solc",
    "version": "0.6.8+commit.0bbfe453.Emscripten.clang"
  },
  "schemaVersion": "3.4.3",
  "updatedAt": "2022-05-11T23:47:30.824Z",
  "devdoc": {
    "methods": {}
  },
  "userdoc": {
    "methods": {}
  }
}